{
  "_format": "hh-sol-artifact-1",
  "contractName": "GasChallenge",
  "sourceName": "contracts/gasChallenge.sol",
  "abi": [
    {
      "inputs": [],
      "stateMutability": "nonpayable",
      "type": "constructor"
    },
    {
      "inputs": [],
      "name": "notOptimizedFunction",
      "outputs": [],
      "stateMutability": "nonpayable",
      "type": "function"
    },
    {
      "inputs": [
        {
          "internalType": "uint256",
          "name": "",
          "type": "uint256"
        }
      ],
      "name": "numbers",
      "outputs": [
        {
          "internalType": "uint8",
          "name": "",
          "type": "uint8"
        }
      ],
      "stateMutability": "view",
      "type": "function"
    },
    {
      "inputs": [],
      "name": "optimizedFunction",
      "outputs": [],
      "stateMutability": "nonpayable",
      "type": "function"
    },
    {
      "inputs": [],
      "name": "sum",
      "outputs": [
        {
          "internalType": "uint256",
          "name": "",
          "type": "uint256"
        }
      ],
      "stateMutability": "view",
      "type": "function"
    }
  ],
  "bytecode": "0x6080604052604051806101400160405280600160ff168152602001600260ff168152602001600360ff168152602001600460ff168152602001600560ff168152602001600660ff168152602001600760ff168152602001600860ff168152602001600960ff168152602001600a60ff16815250600090600a610082929190610113565b5034801561008f57600080fd5b5061009e6100a960201b60201c565b60018190555061029c565b60008060005b600a8160ff16101561010b5760008160ff16600a81106100d2576100d16101ca565b5b602091828204019190069054906101000a900460ff1660ff16826100f69190610232565b9150808061010390610273565b9150506100af565b508091505090565b82600a601f0160209004810192821561019c5791602002820160005b8382111561016d57835183826101000a81548160ff021916908360ff160217905550926020019260010160208160000104928301926001030261012f565b801561019a5782816101000a81549060ff021916905560010160208160000104928301926001030261016d565b505b5090506101a991906101ad565b5090565b5b808211156101c65760008160009055506001016101ae565b5090565b7f4e487b7100000000000000000000000000000000000000000000000000000000600052603260045260246000fd5b6000819050919050565b7f4e487b7100000000000000000000000000000000000000000000000000000000600052601160045260246000fd5b600061023d826101f9565b9150610248836101f9565b92508282019050808211156102605761025f610203565b5b92915050565b600060ff82169050919050565b600061027e82610266565b915060ff820361029157610290610203565b5b600182019050919050565b61032d806102ab6000396000f3fe608060405234801561001057600080fd5b506004361061004c5760003560e01c806368b5f223146100515780637ce418941461005b578063853255cc14610065578063d39fa23314610083575b600080fd5b6100596100b3565b005b610063610118565b005b61006d610177565b60405161007a91906101c0565b60405180910390f35b61009d6004803603810190610098919061020c565b61017d565b6040516100aa9190610255565b60405180910390f35b60005b600a8160ff16101561010d576000808260ff16600a81106100da576100d9610270565b5b602091828204019190066101000a81548160ff021916908360ff1602179055508080610105906102ce565b9150506100b6565b506000600181905550565b60005b600a8160ff16101561016c576000808260ff16600a811061013f5761013e610270565b5b602091828204019190066101000a81548160ff021916908360ff160217905550808060010191505061011b565b506000600181905550565b60015481565b600081600a811061018d57600080fd5b60209182820401919006915054906101000a900460ff1681565b6000819050919050565b6101ba816101a7565b82525050565b60006020820190506101d560008301846101b1565b92915050565b600080fd5b6101e9816101a7565b81146101f457600080fd5b50565b600081359050610206816101e0565b92915050565b600060208284031215610222576102216101db565b5b6000610230848285016101f7565b91505092915050565b600060ff82169050919050565b61024f81610239565b82525050565b600060208201905061026a6000830184610246565b92915050565b7f4e487b7100000000000000000000000000000000000000000000000000000000600052603260045260246000fd5b7f4e487b7100000000000000000000000000000000000000000000000000000000600052601160045260246000fd5b60006102d982610239565b915060ff82036102ec576102eb61029f565b5b60018201905091905056fea2646970667358221220436c5dc6a3498537d0d12e479815ec59d3a02ea12b74ba70e97ab3359c825d3464736f6c63430008120033",
  "linkReferences": {},
  "deployedLinkReferences": {}
}